:03000000020619DC
:0C061900787FE4F6D8FD75817F02066052
:100C6800E4FDFCC3ED9FEC9E50070DBD00010C8018
:010C7800F289
:010C79002258
:100BA9008F7C8D7D80077FD0120AAB5005120BE236
:0F0BB90080F4AF7C120AABAF7D120AAB020C09BD
:020AEE008F7EF9
:100AF000E4F57F80077FD0120AAB5005120BE2802D
:100B0000F4AF7E120AAB120BF67FD1120AAB120BB6
:100B10002B8F7F120C2FC2B67FF47E01120B90D266
:0A0B2000B67FF47E01120B90AF7F48
:010B2A0022A8
:080A16008F708B718A728973E5
:100A1E0080077FD0120AAB5005120BE280F4AF7044
:100A2E00120AABE4F575F576C3E5769574E5759423
:100A3E0000501DAB71AA72A97385768285758312DB
:100A4E000342FF120AAB0576E57670DC057580D899
:030A5E00020C097E
:080726008F6C8B6D8A6E896FE8
:10072E0080077FD0120AAB5005120BE280F4AF6C3B
:10073E00120AAB120BF67FD1120AAB120B2BAB6D5A
:10074E00AA6EA96FEF12036F757200757301C3E580
:10075E00739571E57295705020120C1C120B2BAB19
:10076E006DAA6EA96F857382857283EF1203810560
:10077E0073E57370D9057280D5120C2FC2B67FF453
:0E078E007E01120B90D2B67FF47E01020B901A
:1008C500E56F75F00A84C454F0FEE56F75F00A848F
:1008D500E5F04EF578EB75F00A84C454F0FEEB753F
:1008E500F00A84E5F04EF579ED75F00A84C454F00C
:1008F500FEED75F00A84E5F04EF57AEF1460080414
:100905007008437A408003437A607B007A007978E7
:08091500757403E4FF020A16E9
:1006A5007B007A007978757000757103E4FF120795
:1006B50026857877E577547FC4540F75F00AA4FF33
:1006C500E577540F2FF578857977E577C4540F755D
:1006D500F00AA4FFE577540F2FF579E57A30E62384
:1006E50030E505757B018003E4F57B857A77E57751
:1006F500541FC4540F75F00AA4FFE577540F2FF566
:100705007A8017857A77E577C4540F75F00AA4FFC8
:10071500E577540F2FF57A757B027B007A0079789F
:0107250022B1
:100A6100757804EF75F00A84C454F0FEEF75F00A4E
:100A710084E5F04EF579ED75F00A84C454F0FFED8C
:100A810075F00A84E5F04FF57AEB75F00A84C454E9
:100A9100F0FFEB75F00A84E5F04FF57B7B007A00FF
:0A0AA10079787574047F03020A16C9
:10091D007B007A0079787570007571047F0312077A
:10092D0026857977E577C4540F75F00AA4FFE5772E
:10093D00540F2FF579857A77E577C4540F75F00A42
:10094D00A4FFE577540F2FF57A857B77E577C454AF
:10095D000F75F00AA4FFE577540F2FF57B7B007A16
:04096D000079782273
:0D0B83007FFA7E00120B90D2B77FFA7E0041
:100B90007C007D0F1203B5E4FDFCC3ED9FEC9E507D
:080BA000070DBD00010C80F2FD
:010BA800222A
:050C9C00D2B6D2B72220
:100BE200D2B7D2B67FF47E01120B90C2B67FF47EEA
:040BF20001020B9061
:100BF600C2B7120B8CD2B6120B83C2B67FFA7E0036
:030C0600020B904E
:100C0900C2B7120B8CC2B6120B83D2B67FFA7E0022
:030C1900020B903B
:100C1C00C2B7120B8CC2B6120B8CD2B77FF47E010A
:030C2C00020B9028
:100C2F00C2B7120B8CD2B6120B8CD2B77FF47E01E7
:030C3F00020B9015
:020AAB00AB0797
:100AAD00E4FAC2B7120B8CEBA802088002C333D84C
:100ABD00FC30E704D2B68002C2B6120B8CD2B77FDF
:100ACD00F47E01120B900ABA08D8C2B7D2B67FF4E1
:100ADD007E01120B90D2B77FF47E01120B90A2B65D
:010AED0022E6
:100B2B00E4FBFAC2B7D2B67FF47E01120B87A2B6F2
:100B3B00E433F9C374079AFFE9A807088002C333AB
:0D0B4B00D8FC4203120B8C0ABA08D8AF0385
:010B5800227A
:1009C50002380000012201012500012300016914FC
:1009D5000267000002080000023A0000183D0249C3
:1009E5000258029402C102D0030C031B032A0366BA
:1009F5000375038403C0180A0285029402D0030C10
:100A0500033E03480375038403C003FC042E043826
:100C4200758910758DB8758B0CD28E308FFDC28E62
:030C5200C28F222C
:100C5500758910758DFF758BF1D28E308FFDC28E23
:030C6500C28F2219
:080C9400C2B1120C42D2B122E0
:0A0C8A0020B1FD30B1FD20B1FD22C4
:100B5900E4FFFEFDFC30B1FD120C55EF25E0FFEE80
:100B690033FE30B106EF4401FF800020B1FD0DBD19
:090B790000010CED64084C70DC75
:010B82002250
:10097100120C94120C8A120B598E5B8F5C120B595C
:100981008E578F58120B598E598F5A120B598E55FB
:100991008F56120B598E318F32E55C2558FFE55B7E
:1009A1003557FEE55A2FFFE5593EFEE5562FFFE587
:1009B100553EFEEF65327003EE6531600280B1AEE7
:0409C10059AF5A22AE
:100C7A00EF75F00A84F565EF75F00A8485F066224F
:10086500900001120342F52475F00A84F55DE52434
:1008750075F00A8485F05E900002120342F5337527
:10088500F00A84F55FE53375F00A8485F060AF6999
:10089500EF75F00A120307F561AF69EF75F00A12FB
:1008A500030785F062900003120342FFF56B75F0B4
:1008B5000A84F563E56B75F00A8485F0648F6B2215
:10058500900002120342F52D75F00A84F526E52D3B
:1005950075F00A8485F027900001120342F56A750B
:1005A500F00A84F528E56A75F00A8485F0291203B6
:1005B50029F53C75F00A84F52AE53C75F00A848531
:1005C500F02B900003120342F52EF52CE52D75F066
:1005D5003CA47C00256AFBEC35F0FAAF2E7E007C4E
:1005E500027DD01203A3EF2BFFEE3AFEE48F378E88
:1005F50036F535F534E52DB40C19C3E53794D0F54A
:1006050037E5369402F536E5359400F535E534944D
:0406150000F5342296
:10045600E52CB40104D2B38012E52C700CC2B37F34
:1004660064FE120C68D2B2800BC2B37F647E0012A7
:100476000C68C2B2E4F56C745D256CF8E6F5907F05
:100486000A7E00120C68856CA07F0A7E00120C683A
:10049600C2B07F0A7E00120C68D2B07F0A7E0012BC
:1004A6000C68056CC3E56C6480948A40CAE4F56CFC
:1004B6007426256CF8E6F5907F0A7E00120C68E536
:1004C6006C240AF5A07F0A7E00120C68C2B07F0A6F
:1004D6007E00120C68D2B07F0A7E00120C68056C92
:0904E600C3E56C6480948640C7F4
:0104EF0022EA
:10018A00E4F508F509F567F5682080337FE87E0312
:10019A00120C682080293080FD753800753902E517
:1001AA000964014508700C853C6FAB6AAD2DAF2E12
:1001BA001208C5756F04AB6BAD33AF24020A61E454
:1001CA00FF7E0A785DE4F608DEFC7E007F0AE52DF4
:1001DA0075F00A84F526E52D75F00A8485F027E581
:1001EA006A75F00A84F528E56A75F00A8485F029AB
:1001FA00E53C75F00A84F52AE53C75F00A8485F039
:10020A002B852E2C12045620816D7FE87E03120C5A
:10021A00682081637508007509013081FDE5677002
:10022A0056E568146020146033146046240370474E
:10023A00740A252DF52DD3940C403CE52D75F00A52
:10024A008485F02D8031740A256AF56AC3943C408E
:10025A0026E56A75F00A8485F06A801B740A253CD3
:10026A00F53CC3943C4010E53C75F00A8485F03CAB
:10027A008005052E532E012082537FE87E03120C3F
:10028A00682082497508007509013082FDE56770AA
:10029A003CE56814601814602214602C2403702D45
:1002AA00052DE52DD3940C4024752D01801F056A78
:1002BA00E56A75F03C8485F06A8012053CE53C7578
:1002CA00F03C8485F03C8005052E532E01208323C3
:1002DA007FE87E03120C682083193083FD0568E5E8
:1002EA006870020567AE67FF7C007D0412040A8C01
:0D02FA00678D687F647E00120C680201931E
:10000300E4F567F568C3E5399402E53864809480C4
:100013004003020189E4FF7E067826E4F608DEFC4D
:100023007E007F06752C02E4F565F566E52475F020
:100033000A84F55DE52475F00A8485F05EE5337581
:10004300F00A84F55FE53375F00A8485F060E569AD
:1000530075F00A84F561E56975F00A8485F062E557
:100063006B75F00A84F563E56B75F00A8485F064BB
:100073001204562081767FE87E03120C6820816C7F
:100083003081FDE5677065E5681460201460331402
:10009300604624037056740A2524F524D3941F4024
:1000A3004BE52475F00A8485F0248040740A2533D7
:1000B300F533D3940C4035E53375F00A8485F0337A
:1000C300802A740A2569F569D39463401FE569752D
:1000D300F00A8485F0698014740A256BF56BD39458
:1000E300634009E56B75F00A8485F06B2082547FC9
:1000F300E87E03120C6820824A3082FDE567704374
:10010300E56814601814602314602D24037034050B
:1001130024E524D3941F402B75240180260533E561
:1001230033D3940C401D75330180180569E5697557
:10013300F0648485F069800B056BE56B75F064846E
:1001430085F06B2083237FE87E03120C68208319DC
:100153003083FD0568E56870020567AE67FF7C00C4
:100163007D0412040A8C678D682080107FE87E036B
:10017300120C682080063080FD12018A7F647E00A5
:06018300120C68020008E6
:010189002253
:0404F0008E6C8F6D12
:1004F400E56D6401456C703EF583F582AF82EF25AE
:10050400E0243DF8E6FE08E6FFEE3395E0FDFCABA3
:1005140037AA36A935A834D31204404009A3E5828A
:10052400640C458370D6E582640C45837003FEFF3A
:1005340022AF82AE8322E56D6402456C703EF58382
:10054400F582AF82EF25E0240AF8E6FE08E6FFEE26
:100554003395E0FDFCAB37AA36A935A834D3120491
:10056400404009A3E582640C458370D6E582640C9F
:1005740045837003FEFF22AE83AF82227EFF7FFF9E
:010584002254
:100BC8002084083085057E007F0122308408208536
:0A0BD800057E007F0222E4FEFF22EA
:10079C00E5306401452F702AE53B25E0243DF8E661
:1007AC00FE08E6FFEE3395E0FDFCAB37AA36A93523
:1007BC00A834C3120440700AE53CC3940F5003C222
:1007CC00B422E5306402452F702AE53B25E0240A6B
:1007DC00F8E6FE08E6FFEE3395E0FDFCAB37AA36F3
:1007EC00A935A834C3120440700AE53CC3940F50D9
:0707FC0003C2B422D2B422B3
:10080300E4F53AF53BF52F753001D280D282D281DF
:10081300D283D284D285120C9CE4F538F539E4F501
:1008230038F53912091D1208651206A5120585123D
:100833000971120C7A120456AF30AE2F1204F08EE7
:100843003A8F3B12079C2080107FE87E03120C68CE
:100853002080063080FD1200037F647E19120C682D
:0208630080BC57
:10062500020803E493A3F8E493A34003F68001F2E0
:1006350008DFF48029E493A3F85407240CC8C333D6
:10064500C4540F4420C8834004F456800146F6DFA5
:10065500E4800B01020408102040809009C5E47E67
:10066500019360BCA3FF543F30E509541FFEE4939A
:10067500A360010ECF54C025E060A840B8E493A361
:10068500FAE493A3F8E493A3C8C582C8CAC583CA8C
:10069500F0A3C8C582C8CAC583CADFE9DEE780BE44
:010A150000E0
:10030700C2D530F707B2D563F0FF05F030E70CB27E
:10031700D5F4048463F0FF05F080018430D502F43E
:020327000422AE
:10032900BB010689828A83E0225002E722BBFE02D2
:09033900E32289828A83E4932205
:10034200BB010CE58229F582E5833AF583E0225070
:1003520006E92582F8E622BBFE06E92582F8E222BA
:0D036200E58229F582E5833AF583E49322D4
:10036F00BB010689828A83F0225002F722BBFE016D
:02037F00F32267
:10038100F8BB010DE58229F582E5833AF583E8F0B2
:10039100225006E92582C8F622BBFE05E92582C85E
:0203A100F22246
:1003A300EF8DF0A4A8F0CF8CF0A428CE8DF0A42E6E
:0203B300FE2228
:1003B500BC000BBE0029EF8DF084FFADF022E4CC2C
:1003C500F875F008EF2FFFEE33FEEC33FCEE9DECF5
:1003D500984005FCEE9DFE0FD5F0E9E4CEFD22ED3B
:1003E500F8F5F0EE8420D21CFEADF075F008EF2F85
:1003F500FFED33FD4007985006D5F0F222C398FD76
:050405000FD5F0EA2212
:10040A00C2D5EC30E709B2D5E4C39DFDE49CFCEE0D
:10041A0030E715B2D5E4C39FFFE49EFE1203B5C3CD
:10042A00E49DFDE49CFC80031203B530D507C3E4C8
:06043A009FFFE49EFE227C
:10044000EB9FF5F0EA9E42F0E99D42F0EC6480C833
:0604500064809845F022D3
:00000001FF
