:0300000002067B7A
:0C067B00787FE4F6D8FD75817F0206C28E
:100C0100E4FDFCC3ED9FEC9E50070DBD00010C807F
:010C1100F2F0
:010C120022BF
:100B42008F7C8D7D80077FD0120A445005120B7B6B
:0F0B520080F4AF7C120A44AF7D120A44020BA25A
:020A87008F7E60
:100A8900E4F57F80077FD0120A445005120B7B8062
:100A9900F4AF7E120A44120B8F7FD1120A44120A54
:100AA900C48F7F120BC8C2B67FF47E01120B29D204
:0A0AB900B67FF47E01120B29AF7F17
:010AC3002210
:0809AF008F708B718A7289734D
:1009B70080077FD0120A445005120B7B80F4AF707A
:1009C700120A44E4F575F576C3E5769574E57594F2
:1009D70000501DAB71AA72A9738576828575831243
:1009E70002F2FF120A440576E57670DC057580D8B9
:0309F700020BA24E
:080788008F6C8B6D8A6E896F86
:1007900080077FD0120A445005120B7B80F4AF6CA7
:1007A000120A44120B8F7FD1120A44120AC4AB6D95
:1007B000AA6EA96FEF12031F757200757301C3E56E
:1007C000739571E57295705020120BB5120AC4AB87
:1007D0006DAA6EA96F857382857283EF120331054E
:1007E00073E57370D9057280D5120BC8C2B67FF459
:0E07F0007E01120B29D2B67FF47E01020B2986
:10085E00E56F75F00A84C454F0FEE56F75F00A84F6
:10086E00E5F04EF578EB75F00A84C454F0FEEB75A6
:10087E00F00A84E5F04EF579ED75F00A84C454F073
:10088E00FEED75F00A84E5F04EF57AEF146008047B
:10089E007008437A408003437A607B007A0079784F
:0808AE00757403E4FF0209AFB9
:100707007B007A007978757000757103E4FF120732
:1007170088857877E577547FC4540F75F00AA4FF6E
:10072700E577540F2FF578857977E577C4540F75FA
:10073700F00AA4FFE577540F2FF579E57A30E62321
:1007470030E505757B018003E4F57B857A77E577EE
:10075700541FC4540F75F00AA4FFE577540F2FF503
:100767007A8017857A77E577C4540F75F00AA4FF66
:10077700E577540F2FF57A757B027B007A0079783D
:01078700224F
:1009FA00757804EF75F00A84C454F0FEEF75F00AB6
:100A0A0084E5F04EF579ED75F00A84C454F0FFEDF3
:100A1A0075F00A84E5F04FF57AEB75F00A84C45450
:100A2A00F0FFEB75F00A84E5F04FF57B7B007A0066
:0A0A3A0079787574047F030209AF98
:1008B6007B007A0079787570007571047F031207E2
:1008C60088857977E577C4540F75F00AA4FFE57734
:1008D600540F2FF579857A77E577C4540F75F00AAA
:1008E600A4FFE577540F2FF57A857B77E577C45417
:1008F6000F75F00AA4FFE577540F2FF57B7B007A7E
:0409060000797822DA
:0D0B1C007FFA7E00120B29D2B77FFA7E000F
:100B29007C007D0F120365E4FDFCC3ED9FEC9E5034
:080B3900070DBD00010C80F264
:010B41002291
:050C3500D2B6D2B72287
:100B7B00D2B7D2B67FF47E01120B29C2B67FF47EB8
:040B8B0001020B292F
:100B8F00C2B7120B25D2B6120B1CC2B67FFA7E006B
:030B9F00020B291D
:100BA200C2B7120B25C2B6120B1CD2B67FFA7E0058
:030BB200020B290A
:100BB500C2B7120B25C2B6120B25D2B77FF47E0140
:030BC500020B29F7
:100BC800C2B7120B25D2B6120B25D2B77FF47E011D
:030BD800020B29E4
:020A4400AB07FE
:100A4600E4FAC2B7120B25EBA802088002C333D81A
:100A5600FC30E704D2B68002C2B6120B25D2B77FAD
:100A6600F47E01120B290ABA08D8C2B7D2B67FF4AF
:100A76007E01120B29D2B77FF47E01120B29A2B692
:010A8600224D
:100AC400E4FBFAC2B7D2B67FF47E01120B20A2B6C1
:100AD400E433F9C374079AFFE9A807088002C33313
:0D0AE400D8FC4203120B250ABA08D8AF0354
:010AF10022E2
:10095E000238000001220101250001230001691463
:10096E000267000002080000023A0000183D02492A
:10097E000258029402A302B202EE02FD030C0348D7
:10098E000357036603A2180A0285029402D0030CD1
:10099E00033E03480375038403C003FC042E04388E
:100BDB00758910758DB8758B0CD28E308FFDC28ECA
:030BEB00C28F2294
:100BEE00758910758DFF758BF1D28E308FFDC28E8B
:030BFE00C28F2281
:080C2D00C2B1120BDBD2B122AF
:0A0C230020B1FD30B1FD20B1FD222B
:100AF200E4FFFEFDFC30B1FD120BEEEF25E0FFEE50
:100B020033FE30B106EF4401FF800020B1FD0DBD80
:090B120000010CED64084C70DCDC
:010B1B0022B7
:10090A00120C2D120C23120AF28E5B8F5C120AF261
:10091A008E578F58120AF28E598F5A120AF28E5532
:10092A008F56120AF28E318F32E55C2558FFE55B4D
:10093A003557FEE55A2FFFE5593EFEE5562FFFE5EE
:10094A00553EFEEF65327003EE6531600280B1AE4E
:04095A0059AF5A2215
:100C1300EF75F00A84F565EF75F00A8485F06622B6
:1007FE009000011202F2F52475F00A84F55DE524ED
:10080E0075F00A8485F05E9000021202F2F53375DF
:10081E00F00A84F55FE53375F00A8485F060AF6900
:10082E00EF75F00A1202B7F561AF69EF75F00A12B3
:10083E0002B785F0629000031202F2FFF56B75F0BD
:10084E000A84F563E56B75F00A8485F0648F6B227C
:1005E7009000021202F2F52D75F00A84F526E52D2A
:1005F70075F00A8485F0279000011202F2F56A75FA
:10060700F00A84F528E56A75F00A8485F029120254
:10061700D9F53C75F00A84F52AE53C75F00A84851E
:10062700F02B9000031202F2F52EF52CE52D75F054
:100637003CA47C00256AFBEC35F0FAAF2E7E007CEB
:10064700027DD0120353EF2BFFEE3AFEE48F378E75
:1006570036F535F534E52DB40C19C3E53794D0F5E7
:1006670037E5369402F536E5359400F535E53494EB
:0406770000F5342234
:1004B800E52CB40104D2B38012E52C700CC2B37FD2
:1004C80064FE120C01D2B2800BC2B37F647E0012AC
:1004D8000C01C2B2E4F56C745D256CF8E6F5907F0A
:1004E8000A7E00120C01856CA07F0A7E00120C01A6
:1004F800C2B07F0A7E00120C01D2B07F0A7E0012C1
:100508000C01056CC3E56C6480948A40CAE4F56C00
:100518007426256CF8E6F5907F0A7E00120C01E53A
:100528006C240AF5A07F0A7E00120C01C2B07F0A73
:100538007E00120C01D2B07F0A7E00120C01056CFD
:09054800C3E56C6480948640C791
:010551002287
:10016200E4F508F509F567F5682080293080FD750A
:100172003800753902E50964014508700C853C6F49
:10018200AB6AAD2DAF2E12085E756F04AB6BAD334B
:10019200AF240209FAE4FF7E0A785DE4F608DEFC89
:1001A2007E007F0AE52D75F00A84F526E52D75F0AF
:1001B2000A8485F027E56A75F00A84F528E56A75F0
:1001C200F00A8485F029E53C75F00A84F52AE53CBD
:1001D20075F00A8485F02B852E2C1204B8208163D9
:1001E2007508007509013081FDE5677056E56814F0
:1001F200602014603314604624037047740A252D6E
:10020200F52DD3940C403CE52D75F00A8485F02D34
:100212008031740A256AF56AC3943C4026E56A7502
:10022200F00A8485F06A801B740A253CF53CC3946D
:100232003C4010E53C75F00A8485F03C8005052EB3
:10024200532E012082497508007509013082FDE5AF
:1002520067703CE56814601814602214602C240353
:10026200702D052DE52DD3940C4024752D01801F92
:10027200056AE56A75F03C8485F06A8012053CE502
:100282003C75F03C8485F03C8005052E532E012000
:1002920083193083FD0568E56870020567AE67FF64
:1002A2007C007D041203BA8C678D687F647E001225
:0502B2000C0102016BCC
:10000300E4F567F568C3E5399402E53864809480C4
:100013004003020161E4FF7E067826E4F608DEFC75
:100023007E007F06752C02E4F565F566E52475F020
:100033000A84F55DE52475F00A8485F05EE5337581
:10004300F00A84F55FE53375F00A8485F060E569AD
:1000530075F00A84F561E56975F00A8485F062E557
:100063006B75F00A84F563E56B75F00A8485F064BB
:100073001204B820816C3081FDE5677065E5681472
:10008300602014603314604624037056740A2524D8
:10009300F524D3941F404BE52475F00A8485F0249E
:1000A3008040740A2533F533D3940C4035E533751A
:1000B300F00A8485F033802A740A2569F569D3949C
:1000C30063401FE56975F00A8485F0698014740A3A
:1000D300256BF56BD394634009E56B75F00A848552
:1000E300F06B20824A3082FDE5677043E568146057
:1000F3001814602314602D240370340524E524D3DD
:10010300941F402B75240180260533E533D3940CCB
:10011300401D75330180180569E56975F0648485B0
:10012300F069800B056BE56B75F0648485F06B20DB
:1001330083193083FD0568E56870020567AE67FFC4
:100143007C007D041203BA8C678D682080063080A2
:0E015300FD1201627F647E00120C01020008A2
:01016100227B
:040552008E6C8F6DAF
:10055600E56D6401456C703EF583F582AF82EF254B
:10056600E0243DF8E6FE08E6FFEE3395E0FDFCAB41
:1005760037AA36A935A834D31203F04009A3E58279
:10058600640C458370D6E582640C45837003FEFFD8
:1005960022AF82AE8322E56D6402456C703EF58320
:1005A600F582AF82EF25E0240AF8E6FE08E6FFEEC4
:1005B6003395E0FDFCAB37AA36A935A834D3120330
:1005C600F04009A3E582640C458370D6E582640C8D
:1005D60045837003FEFF22AE83AF82227EFF7FFF3C
:0105E60022F2
:100B61002084083085057E007F012230840820859D
:0A0B7100057E007F0222E4FEFF2251
:10040600E4F53AF53BF52F753001C280D282D281F0
:10041600D283D284D285120C35E4F538F539E4F569
:1004260038F5391208B61207FE1207071205E71249
:10043600090A120C131204B8120B618E2F8F301298
:1004460005528E3A8F3BE5306401452F7023EF2528
:10045600E0243DF8E6FE08E6FFEE3395E0FDFCAB52
:1004660037AA36A935A834C31203F07004D2B48073
:100476002EE5306402452F7024E53B25E0240AF87A
:10048600E6FE08E6FFEE3395E0FDFCAB37AA36A99B
:1004960035A834C31203F07004D2B48002C2B4206B
:1004A60080063080FD1200037F887E13120C010245
:0204B60004241C
:10068700020406E493A3F8E493A34003F68001F27F
:1006970008DFF48029E493A3F85407240CC8C33374
:1006A700C4540F4420C8834004F456800146F6DF43
:1006B700E4800B010204081020408090095EE47E6C
:1006C700019360BCA3FF543F30E509541FFEE49338
:1006D700A360010ECF54C025E060A840B8E493A3FF
:1006E700FAE493A3F8E493A3C8C582C8CAC583CA2A
:1006F700F0A3C8C582C8CAC583CADFE9DEE780BEE2
:0109AE000048
:1002B700C2D530F707B2D563F0FF05F030E70CB2CF
:1002C700D5F4048463F0FF05F080018430D502F48F
:0202D7000422FF
:1002D900BB010689828A83E0225002E722BBFE0223
:0902E900E32289828A83E4932256
:1002F200BB010CE58229F582E5833AF583E02250C1
:1003020006E92582F8E622BBFE06E92582F8E2220A
:0D031200E58229F582E5833AF583E4932224
:10031F00BB010689828A83F0225002F722BBFE01BD
:02032F00F322B7
:10033100F8BB010DE58229F582E5833AF583E8F002
:10034100225006E92582C8F622BBFE05E92582C8AE
:02035100F22296
:10035300EF8DF0A4A8F0CF8CF0A428CE8DF0A42EBE
:02036300FE2278
:10036500BC000BBE0029EF8DF084FFADF022E4CC7C
:10037500F875F008EF2FFFEE33FEEC33FCEE9DEC45
:10038500984005FCEE9DFE0FD5F0E9E4CEFD22ED8B
:10039500F8F5F0EE8420D21CFEADF075F008EF2FD5
:1003A500FFED33FD4007985006D5F0F222C398FDC6
:0503B5000FD5F0EA2263
:1003BA00C2D5EC30E709B2D5E4C39DFDE49CFCEE5E
:1003CA0030E715B2D5E4C39FFFE49EFE120365C36E
:1003DA00E49DFDE49CFC800312036530D507C3E469
:0603EA009FFFE49EFE22CD
:1003F000EB9FF5F0EA9E42F0E99D42F0EC6480C884
:0604000064809845F02223
:00000001FF
