:030000000206787D
:0C067800787FE4F6D8FD75817F0206BF94
:100BFE00E4FDFCC3ED9FEC9E50070DBD00010C8083
:010C0E00F2F3
:010C0F0022C2
:100B3F008F7C8D7D80077FD0120A415005120B7874
:0F0B4F0080F4AF7C120A41AF7D120A41020B9F66
:020A84008F7E63
:100A8600E4F57F80077FD0120A415005120B78806B
:100A9600F4AF7E120A41120B8C7FD1120A41120A60
:100AA600C18F7F120BC5C2B67FF47E01120B26D210
:0A0AB600B67FF47E01120B26AF7F1D
:010AC0002213
:0809AC008F708B718A72897350
:1009B40080077FD0120A415005120B7880F4AF7083
:1009C400120A41E4F575F576C3E5769574E57594F8
:1009D40000501DAB71AA72A9738576828575831246
:1009E40002F2FF120A410576E57670DC057580D8BF
:0309F400020B9F54
:080785008F6C8B6D8A6E896F89
:10078D0080077FD0120A415005120B7880F4AF6CB0
:10079D00120A41120B8C7FD1120A41120AC1AB6DA4
:1007AD00AA6EA96FEF12031F757200757301C3E571
:1007BD00739571E57295705020120BB2120AC1AB90
:1007CD006DAA6EA96F857382857283EF1203310551
:1007DD0073E57370D9057280D5120BC5C2B67FF45F
:0E07ED007E01120B26D2B67FF47E01020B268F
:10085B00E56F75F00A84C454F0FEE56F75F00A84F9
:10086B00E5F04EF578EB75F00A84C454F0FEEB75A9
:10087B00F00A84E5F04EF579ED75F00A84C454F076
:10088B00FEED75F00A84E5F04EF57AEF146008047E
:10089B007008437A408003437A607B007A00797852
:0808AB00757403E4FF0209ACBF
:100704007B007A007978757000757103E4FF120735
:1007140085857877E577547FC4540F75F00AA4FF74
:10072400E577540F2FF578857977E577C4540F75FD
:10073400F00AA4FFE577540F2FF579E57A30E62324
:1007440030E505757B018003E4F57B857A77E577F1
:10075400541FC4540F75F00AA4FFE577540F2FF506
:100764007A8017857A77E577C4540F75F00AA4FF69
:10077400E577540F2FF57A757B027B007A00797840
:010784002252
:1009F700757804EF75F00A84C454F0FEEF75F00AB9
:100A070084E5F04EF579ED75F00A84C454F0FFEDF6
:100A170075F00A84E5F04FF57AEB75F00A84C45453
:100A2700F0FFEB75F00A84E5F04FF57B7B007A0069
:0A0A370079787574047F030209AC9E
:1008B3007B007A0079787570007571047F031207E5
:1008C30085857977E577C4540F75F00AA4FFE5773A
:1008D300540F2FF579857A77E577C4540F75F00AAD
:1008E300A4FFE577540F2FF57A857B77E577C4541A
:1008F3000F75F00AA4FFE577540F2FF57B7B007A81
:0409030000797822DD
:0D0B19007FFA7E00120B26D2B77FFA7E0015
:100B26007C007D0F120365E4FDFCC3ED9FEC9E5037
:080B3600070DBD00010C80F267
:010B3E002294
:050C3200D2B6D2B7228A
:100B7800D2B7D2B67FF47E01120B26C2B67FF47EBE
:040B880001020B2635
:100B8C00C2B7120B22D2B6120B19C2B67FFA7E0074
:030B9C00020B2623
:100B9F00C2B7120B22C2B6120B19D2B67FFA7E0061
:030BAF00020B2610
:100BB200C2B7120B22C2B6120B22D2B77FF47E0149
:030BC200020B26FD
:100BC500C2B7120B22D2B6120B22D2B77FF47E0126
:030BD500020B26EA
:020A4100AB0701
:100A4300E4FAC2B7120B22EBA802088002C333D820
:100A5300FC30E704D2B68002C2B6120B22D2B77FB3
:100A6300F47E01120B260ABA08D8C2B7D2B67FF4B5
:100A73007E01120B26D2B77FF47E01120B26A2B69B
:010A83002250
:100AC100E4FBFAC2B7D2B67FF47E01120B1DA2B6C7
:100AD100E433F9C374079AFFE9A807088002C33316
:0D0AE100D8FC4203120B220ABA08D8AF035A
:010AEE0022E5
:10095B000238000001220101250001230001691466
:10096B000267000002080000023A0000183D02492D
:10097B000258029402A302B202EE02FD030C0348DA
:10098B000357036603A2180A0285029402D0030CD4
:10099B00033E03480375038403C003FC042E043891
:100BD800758910758DB8758B0CD28E308FFDC28ECD
:030BE800C28F2297
:100BEB00758910758DFF758BF1D28E308FFDC28E8E
:030BFB00C28F2284
:080C2A00C2B1120BD8D2B122B5
:0A0C200020B1FD30B1FD20B1FD222E
:100AEF00E4FFFEFDFC30B1FD120BEBEF25E0FFEE56
:100AFF0033FE30B106EF4401FF800020B1FD0DBD84
:090B0F0000010CED64084C70DCDF
:010B180022BA
:10090700120C2A120C20120AEF8E5B8F5C120AEF70
:100917008E578F58120AEF8E598F5A120AEF8E553B
:100927008F56120AEF8E318F32E55C2558FFE55B53
:100937003557FEE55A2FFFE5593EFEE5562FFFE5F1
:10094700553EFEEF65327003EE6531600280B1AE51
:0409570059AF5A2218
:100C1000EF75F00A84F565EF75F00A8485F06622B9
:1007FB009000011202F2F52475F00A84F55DE524F0
:10080B0075F00A8485F05E9000021202F2F53375E2
:10081B00F00A84F55FE53375F00A8485F060AF6903
:10082B00EF75F00A1202B7F561AF69EF75F00A12B6
:10083B0002B785F0629000031202F2FFF56B75F0C0
:10084B000A84F563E56B75F00A8485F0648F6B227F
:1005E4009000021202F2F52D75F00A84F526E52D2D
:1005F40075F00A8485F0279000011202F2F56A75FD
:10060400F00A84F528E56A75F00A8485F029120257
:10061400D9F53C75F00A84F52AE53C75F00A848521
:10062400F02B9000031202F2F52EF52CE52D75F057
:100634003CA47C00256AFBEC35F0FAAF2E7E007CEE
:10064400027DD0120353EF2BFFEE3AFEE48F378E78
:1006540036F535F534E52DB40C19C3E53794D0F5EA
:1006640037E5369402F536E5359400F535E53494EE
:0406740000F5342237
:1004B500E52CB40104D2B38012E52C700CC2B37FD5
:1004C50064FE120BFED2B2800BC2B37F647E0012B3
:1004D5000BFEC2B2E4F56C745D256CF8E6F5907F11
:1004E5000A7E00120BFE856CA07F0A7E00120BFEB1
:1004F500C2B07F0A7E00120BFED2B07F0A7E0012C8
:100505000BFE056CC3E56C6480948A40CAE4F56C07
:100515007426256CF8E6F5907F0A7E00120BFEE541
:100525006C240AF5A07F0A7E00120BFEC2B07F0A7A
:100535007E00120BFED2B07F0A7E00120BFE056C08
:09054500C3E56C6480948640C794
:01054E00228A
:10016200E4F508F509F567F5682080293080FD750A
:100172003800753902E50964014508700C853C6F49
:10018200AB6AAD2DAF2E12085B756F04AB6BAD334E
:10019200AF240209F7E4FF7E0A785DE4F608DEFC8C
:1001A2007E007F0AE52D75F00A84F526E52D75F0AF
:1001B2000A8485F027E56A75F00A84F528E56A75F0
:1001C200F00A8485F029E53C75F00A84F52AE53CBD
:1001D20075F00A8485F02B852E2C1204B5208163DC
:1001E2007508007509013081FDE5677056E56814F0
:1001F200602014603314604624037047740A252D6E
:10020200F52DD3940C403CE52D75F00A8485F02D34
:100212008031740A256AF56AC3943C4026E56A7502
:10022200F00A8485F06A801B740A253CF53CC3946D
:100232003C4010E53C75F00A8485F03C8005052EB3
:10024200532E012082497508007509013082FDE5AF
:1002520067703CE56814601814602214602C240353
:10026200702D052DE52DD3940C4024752D01801F92
:10027200056AE56A75F03C8485F06A8012053CE502
:100282003C75F03C8485F03C8005052E532E012000
:1002920083193083FD0568E56870020567AE67FF64
:1002A2007C007D041203BA8C678D687F647E001225
:0502B2000BFE02016BD0
:10000300E4F567F568C3E5399402E53864809480C4
:100013004003020161E4FF7E067826E4F608DEFC75
:100023007E007F06752C02E4F565F566E52475F020
:100033000A84F55DE52475F00A8485F05EE5337581
:10004300F00A84F55FE53375F00A8485F060E569AD
:1000530075F00A84F561E56975F00A8485F062E557
:100063006B75F00A84F563E56B75F00A8485F064BB
:100073001204B520816C3081FDE5677065E5681475
:10008300602014603314604624037056740A2524D8
:10009300F524D3941F404BE52475F00A8485F0249E
:1000A3008040740A2533F533D3940C4035E533751A
:1000B300F00A8485F033802A740A2569F569D3949C
:1000C30063401FE56975F00A8485F0698014740A3A
:1000D300256BF56BD394634009E56B75F00A848552
:1000E300F06B20824A3082FDE5677043E568146057
:1000F3001814602314602D240370340524E524D3DD
:10010300941F402B75240180260533E533D3940CCB
:10011300401D75330180180569E56975F0648485B0
:10012300F069800B056BE56B75F0648485F06B20DB
:1001330083193083FD0568E56870020567AE67FFC4
:100143007C007D041203BA8C678D682080063080A2
:0E015300FD1201627F647E00120BFE020008A6
:01016100227B
:04054F008E6C8F6DB2
:10055300E56D6401456C703EF583F582AF82EF254E
:10056300E0243DF8E6FE08E6FFEE3395E0FDFCAB44
:1005730037AA36A935A834D31203F04009A3E5827C
:10058300640C458370D6E582640C45837003FEFFDB
:1005930022AF82AE8322E56D6402456C703EF58323
:1005A300F582AF82EF25E0240AF8E6FE08E6FFEEC7
:1005B3003395E0FDFCAB37AA36A935A834D3120333
:1005C300F04009A3E582640C458370D6E582640C90
:1005D30045837003FEFF22AE83AF82227EFF7FFF3F
:0105E30022F5
:100B5E002084083085057E007F01223084082085A0
:0A0B6E00057E007F0222E4FEFF2254
:10040600E4F53AF53BF52F753001D280D282D281E0
:10041600D283D284D285120C32E4F538F539E4F56C
:1004260038F5391208B31207FB1207041205E41255
:100436000907120C101204B5AF30AE2F12054F8EFD
:100446003A8F3BE5306401452F7023EF25E0243DCC
:10045600F8E6FE08E6FFEE3395E0FDFCAB37AA367C
:10046600A935A834C31203F07004D2B4802EE53047
:100476006402452F7024E53B25E0240AF8E6FE08D1
:10048600E6FFEE3395E0FDFCAB37AA36A935A83476
:10049600C31203F07004D2B48002C2B420800630C6
:0F04A60080FD1200037F887E13120BFE020424D8
:10068400020406E493A3F8E493A34003F68001F282
:1006940008DFF48029E493A3F85407240CC8C33377
:1006A400C4540F4420C8834004F456800146F6DF46
:1006B400E4800B010204081020408090095BE47E72
:1006C400019360BCA3FF543F30E509541FFEE4933B
:1006D400A360010ECF54C025E060A840B8E493A302
:1006E400FAE493A3F8E493A3C8C582C8CAC583CA2D
:1006F400F0A3C8C582C8CAC583CADFE9DEE780BEE5
:0109AB00004B
:1002B700C2D530F707B2D563F0FF05F030E70CB2CF
:1002C700D5F4048463F0FF05F080018430D502F48F
:0202D7000422FF
:1002D900BB010689828A83E0225002E722BBFE0223
:0902E900E32289828A83E4932256
:1002F200BB010CE58229F582E5833AF583E02250C1
:1003020006E92582F8E622BBFE06E92582F8E2220A
:0D031200E58229F582E5833AF583E4932224
:10031F00BB010689828A83F0225002F722BBFE01BD
:02032F00F322B7
:10033100F8BB010DE58229F582E5833AF583E8F002
:10034100225006E92582C8F622BBFE05E92582C8AE
:02035100F22296
:10035300EF8DF0A4A8F0CF8CF0A428CE8DF0A42EBE
:02036300FE2278
:10036500BC000BBE0029EF8DF084FFADF022E4CC7C
:10037500F875F008EF2FFFEE33FEEC33FCEE9DEC45
:10038500984005FCEE9DFE0FD5F0E9E4CEFD22ED8B
:10039500F8F5F0EE8420D21CFEADF075F008EF2FD5
:1003A500FFED33FD4007985006D5F0F222C398FDC6
:0503B5000FD5F0EA2263
:1003BA00C2D5EC30E709B2D5E4C39DFDE49CFCEE5E
:1003CA0030E715B2D5E4C39FFFE49EFE120365C36E
:1003DA00E49DFDE49CFC800312036530D507C3E469
:0603EA009FFFE49EFE22CD
:1003F000EB9FF5F0EA9E42F0E99D42F0EC6480C884
:0604000064809845F02223
:00000001FF
